:0300000002089F54
:0C089F00787FE4F6D8FD758107020800A0
:100800007F387E001208AB7F0E7E001208AB7F019E
:100810007E001208AB7F807E001208AB7F4C7E000A
:100820001208B77F437E001208B77F447E0012088B
:10083000B77FC07E001208AB7F497E001208B77FE9
:100840004E7E001208B77F547E001208B77F457EA7
:10085000001208B77F527E001208B77F467E001252
:1008600008B77F417E001208B77F437E001208B7A9
:090870007F457E001208B7809C50
:0C08AB008F90C2A1C2A0120879C2A22244
:0C08B7008F90C2A1D2A0120879C2A22228
:06087900D2A27F0A7E00FE
:10087F00E4FDFCC3ED9FEC9E5015E4FBFA0BBB00AF
:0F088F00010AEB64714A70F50DBD00010C80E4A5
:01089E002237
:00000001FF
